NB AND SUBS\NB CAD 200314.txt(1331): APD20140320NESBITT CAN CAD   6NESBITT CAN CAD      123NTLTD    00000       C6399                INVEXPC-00000000000012339CAD-00000000000012339CAD20140320ChicagoFeb23-27:Relocation expenses                                                                                                                                                                     ChicagoFeb23-27:Relocation expenses                         26621          GREGORY, MICHAEL [621]                  .                                           662205WE3088222                     20140227               20140320 020257MGREGO04              10130039
NB AND SUBS\NB CAD 200314.txt(1510): APD20140320NESBITT CAN CAD   6NESBITT CAN CAD      123NTLTD    00000       C6399                INVEXPC-00000000000114228CAD-00000000000114228CAD20140320ChicagoFeb23-27:Relocation expenses                                                                                                                                                                     ChicagoFeb23-27:Relocation expenses                         26621          GREGORY, MICHAEL [621]                  .                                           662205WE3088222                     20140227               20140320 020257MGREGO04              10130039
NB AND SUBS\NB CAD 200314.txt(1511): APD20140320NESBITT CAN CAD   6NESBITT CAN CAD      123NTLTD    00000       C6399                INVEXPC-00000000000022029CAD-00000000000022029CAD20140320ChicagoFeb23-27:Relocation expenses                                                                                                                                                                     ChicagoFeb23-27:Relocation expenses                         26621          GREGORY, MICHAEL [621]                  .                                           662205WE3088222                     20140227               20140320 020257MGREGO04              10130039
NB AND SUBS\NB CAD 200314.txt(1512): APD20140320NESBITT CAN CAD   6NESBITT CAN CAD      123NTLTD    00000       C6399                INVEXPC-00000000000003390CAD-00000000000003390CAD20140320ChicagoFeb23-27:Relocation expenses                                                                                                                                                                     ChicagoFeb23-27:Relocation expenses                         26621          GREGORY, MICHAEL [621]                  .                                           662205WE3088222                     20140227               20140320 020257MGREGO04              10130039
NB AND SUBS\NB CAD 200314.txt(1513): APD20140320NESBITT CAN CAD   6NESBITT CAN CAD      123NTLTD    00000       C6399                INVEXPC-00000000000005041CAD-00000000000005041CAD20140320ChicagoFeb23-27:Relocation expenses                                                                                                                                                                     ChicagoFeb23-27:Relocation expenses                         26621          GREGORY, MICHAEL [621]                  .                                           662205WE3088222                     20140227               20140320 020257MGREGO04              10130039
NB AND SUBS\NB CAD 200314.txt(1514): APD20140320NESBITT CAN CAD   6NESBITT CAN CAD      123NTLTD    00000       C6399                INVEXPC-00000000000001234CAD-00000000000001234CAD20140320ChicagoFeb23-27:Relocation expenses                                                                                                                                                                     ChicagoFeb23-27:Relocation expenses                         26621          GREGORY, MICHAEL [621]                  .                                           662205WE3088222                     20140227               20140320 020257MGREGO04              10130039
NB AND SUBS\NB CAD 200314.txt(1515): APD20140320NESBITT CAN CAD   6NESBITT CAN CAD      123NTLTD    00000       C6399                INVEXPC-00000000000001439CAD-00000000000001439CAD20140320ChicagoFeb23-27:Relocation expenses                                                                                                                                                                     ChicagoFeb23-27:Relocation expenses                         26621          GREGORY, MICHAEL [621]                  .                                           662205WE3088222                     20140227               20140320 020257MGREGO04              10130039
NB AND SUBS\NB CAD 200314.txt(1516): APD20140320NESBITT CAN CAD   6NESBITT CAN CAD      123NTLTD    00000       C6399                INVEXPC-00000000000001160CAD-00000000000001160CAD20140320ChicagoFeb23-27:Relocation expenses                                                                                                                                                                     ChicagoFeb23-27:Relocation expenses                         26621          GREGORY, MICHAEL [621]                  .                                           662205WE3088222                     20140227               20140320 020257MGREGO04              10130039
NB AND SUBS\NB CAD 200314.txt(1517): APD20140320NESBITT CAN CAD   6NESBITT CAN CAD      123NTLTD    00000       C6399                INVEXPC-00000000000001442CAD-00000000000001442CAD20140320ChicagoFeb23-27:Relocation expenses                                                                                                                                                                     ChicagoFeb23-27:Relocation expenses                         26621          GREGORY, MICHAEL [621]                  .                                           662205WE3088222                     20140227               20140320 020257MGREGO04              10130039
NB AND SUBS\NB CAD 200314.txt(1518): APD20140320NESBITT CAN CAD   6NESBITT CAN CAD      123NTLTD    00000       C6399                INVEXPC-00000000000001270CAD-00000000000001270CAD20140320ChicagoFeb23-27:Relocation expenses                                                                                                                                                                     ChicagoFeb23-27:Relocation expenses                         26621          GREGORY, MICHAEL [621]                  .                                           662205WE3088222                     20140227               20140320 020257MGREGO04              10130039
NB AND SUBS\NB CAD 200314.txt(1519): APD20140320NESBITT CAN CAD   6NESBITT CAN CAD      123NTLTD    00000       C6399                INVEXPC-00000000000000723CAD-00000000000000723CAD20140320ChicagoFeb23-27:Relocation expenses                                                                                                                                                                     ChicagoFeb23-27:Relocation expenses                         26621          GREGORY, MICHAEL [621]                  .                                           662205WE3088222                     20140227               20140320 020257MGREGO04              10130039
NB AND SUBS\NB CAD 200314.txt(1520): APD20140320NESBITT CAN CAD   6NESBITT CAN CAD      123NTLTD    00000       C6399                INVEXPC-00000000000001128CAD-00000000000001128CAD20140320ChicagoFeb23-27:Relocation expenses                                                                                                                                                                     ChicagoFeb23-27:Relocation expenses                         26621          GREGORY, MICHAEL [621]                  .                                           662205WE3088222                     20140227               20140320 020257MGREGO04              10130039
NB AND SUBS\NB CAD 200314.txt(1521): APD20140320NESBITT CAN CAD   6NESBITT CAN CAD      123NTLTD    00000       C6399                INVEXPC-00000000000005032CAD-00000000000005032CAD20140320ChicagoFeb23-27:Relocation expenses                                                                                                                                                                     ChicagoFeb23-27:Relocation expenses                         26621          GREGORY, MICHAEL [621]                  .                                           662205WE3088222                     20140227               20140320 020257MGREGO04              10130039
NB AND SUBS\NB CAD 200314.txt(1522): APD20140320NESBITT CAN CAD   6NESBITT CAN CAD      123NTLTD    00000       C6399                INVEXPC-00000000000011200CAD-00000000000011200CAD20140320ChicagoFeb23-27:Relocation expenses                                                                                                                                                                     ChicagoFeb23-27:Relocation expenses                         26621          GREGORY, MICHAEL [621]                  .                                           662205WE3088222                     20140227               20140320 020257MGREGO04              10130039
NB AND SUBS\NB CAD 200314.txt(2628): APD20140320NESBITT CAN CAD   6NESBITT CAN CAD      123NTLTD    CDSTO       310                  INVEXPD000000000000005032CAD000000000000005032CAD20140320ChicagoFeb23-27:Relocation expenses                                                                 MGregory:relocationFeb23wk                                                                          MGregory:relocationFeb23wk                                  26621          MC-GREGORY, MICHAEL                     .                                           662205WE3088222                     20140227TAX EXEMPT.    20140320 020257MGREGO04              10130039
NB AND SUBS\NB CAD 200314.txt(2629): APD20140320NESBITT CAN CAD   6NESBITT CAN CAD      123NTLTD    CDSTO       310                  INVEXPD000000000000114228CAD000000000000114228CAD20140320ChicagoFeb23-27:Relocation expenses                                                                 MGregory:relocationFeb23wk                                                                          MGregory:relocationFeb23wk                                  26621          MC-GREGORY, MICHAEL                     .                                           662205WE3088222                     20140227TAX EXEMPT.    20140320 020257MGREGO04              10130039
NB AND SUBS\NB CAD 200314.txt(2630): APD20140320NESBITT CAN CAD   6NESBITT CAN CAD      123NTLTD    CDSTO       310                  INVEXPD000000000000000885CAD000000000000000885CAD20140320ChicagoFeb23-27:Relocation expenses                                                                 MGregory:relocationFeb23wk                                                                          MGregory:relocationFeb23wk                                  26621          GREGORY, MICHAEL [621]                  .                                           662205WE3088222                     20140227TAX EXEMPT.    20140320 020257MGREGO04              10130039
NB AND SUBS\NB CAD 200314.txt(2631): APD20140320NESBITT CAN CAD   6NESBITT CAN CAD      123NTLTD    CDSTO       310                  INVEXPD000000000000000666CAD000000000000000666CAD20140320ChicagoFeb23-27:Relocation expenses                                                                 MGregory:relocationFeb23wk                                                                          MGregory:relocationFeb23wk                                  26621          GREGORY, MICHAEL [621]                  .                                           662205WE3088222                     20140227TAX EXEMPT.    20140320 020257MGREGO04              10130039
NB AND SUBS\NB CAD 200314.txt(2632): APD20140320NESBITT CAN CAD   6NESBITT CAN CAD      123NTLTD    CDSTO       310                  INVEXPD000000000000000888CAD000000000000000888CAD20140320ChicagoFeb23-27:Relocation expenses                                                                 MGregory:relocationFeb23wk                                                                          MGregory:relocationFeb23wk                                  26621          GREGORY, MICHAEL [621]                  .                                           662205WE3088222                     20140227TAX EXEMPT.    20140320 020257MGREGO04              10130039
NB AND SUBS\NB CAD 200314.txt(2633): APD20140320NESBITT CAN CAD   6NESBITT CAN CAD      123NTLTD    CDSTO       310                  INVEXPD000000000000000888CAD000000000000000888CAD20140320ChicagoFeb23-27:Relocation expenses                                                                 MGregory:relocationFeb23wk                                                                          MGregory:relocationFeb23wk                                  26621          GREGORY, MICHAEL [621]                  .                                           662205WE3088222                     20140227TAX EXEMPT.    20140320 020257MGREGO04              10130039
NB AND SUBS\NB CAD 200314.txt(2634): APD20140320NESBITT CAN CAD   6NESBITT CAN CAD      123NTLTD    CDSTO       310                  INVEXPD000000000000005358CAD000000000000005358CAD20140320ChicagoFeb23-27:Relocation expenses                                                                 MGregory:relocationFeb23wk                                                                          MGregory:relocationFeb23wk                                  26621          GREGORY, MICHAEL [621]                  .                                           662205WE3088222                     20140227CLMHSTON10.71  20140320 020257MGREGO04              10130039
NB AND SUBS\NB CAD 200314.txt(2635): APD20140320NESBITT CAN CAD   6NESBITT CAN CAD      123NTLTD    CDSTO       310                  INVEXPD000000000000003363CAD000000000000003363CAD20140320ChicagoFeb23-27:Relocation expenses                                                                 ChicagoFeb23-27:Relocation expenses                                                                 ChicagoFeb23-27:Relocation expenses                         26621          GREGORY, MICHAEL [621]                  .                                           662205WE3088222                     20140227CLMHSTON10.71P020140320 020257MGREGO04              10130039
NB AND SUBS\NB CAD 200314.txt(2636): APD20140320NESBITT CAN CAD   6NESBITT CAN CAD      123NTLTD    CDSTO       310                  INVEXPD000000000000019671CAD000000000000019671CAD20140320ChicagoFeb23-27:Relocation expenses                                                                 MGregory:relocationFeb23wk                                                                          MGregory:relocationFeb23wk                                  26621          MC-GREGORY, MICHAEL                     .                                           662205WE3088222                     20140227CLMHSTON10.71  20140320 020257MGREGO04              10130039
NB AND SUBS\NB CAD 200314.txt(2637): APD20140320NESBITT CAN CAD   6NESBITT CAN CAD      123NTLTD    CDSTO       310                  INVEXPD000000000000003027CAD000000000000003027CAD20140320ChicagoFeb23-27:Relocation expenses                                                                 MGregory:relocationFeb23wk                                                                          MGregory:relocationFeb23wk                                  26621          MC-GREGORY, MICHAEL                     .                                           662205WE3088222                     20140227CLMHSTON10.71  20140320 020257MGREGO04              10130039
NB AND SUBS\NB CAD 200314.txt(2638): APD20140320NESBITT CAN CAD   6NESBITT CAN CAD      123NTLTD    CDSTO       310                  INVEXPD000000000000005041CAD000000000000005041CAD20140320ChicagoFeb23-27:Relocation expenses                                                                 MGregory:relocationFeb23wk                                                                          MGregory:relocationFeb23wk                                  26621          MC-GREGORY, MICHAEL                     .                                           662205WE3088222                     20140227TAX EXEMPT.    20140320 020257MGREGO04              10130039
NB AND SUBS\NB CAD 200314.txt(2655): APD20140320NESBITT CAN CAD   6NESBITT CAN CAD      123NTLTD    CDSTO       300                  INVEXPD000000000000000576CAD000000000000000576CAD20140320ChicagoFeb23-27:Relocation expenses                                                                 MGregory:relocationFeb23wk                                                                          MGregory:relocationFeb23wk                                  26621          GREGORY, MICHAEL [621]                  .                                           662205WE3088222                     20140227TAX EXEMPT.    20140320 020257MGREGO04              10130039
NB AND SUBS\NB CAD 200314.txt(2656): APD20140320NESBITT CAN CAD   6NESBITT CAN CAD      123NTLTD    CDSTO       300                  INVEXPD000000000000001128CAD000000000000001128CAD20140320ChicagoFeb23-27:Relocation expenses                                                                 MGregory:relocationFeb23wk                                                                          MGregory:relocationFeb23wk                                  26621          MC-GREGORY, MICHAEL                     .                                           662205WE3088222                     20140227TAX EXEMPT.    20140320 020257MGREGO04              10130039
NB AND SUBS\NB CAD 200314.txt(2657): APD20140320NESBITT CAN CAD   6NESBITT CAN CAD      123NTLTD    CDSTO       300                  INVEXPD000000000000001234CAD000000000000001234CAD20140320ChicagoFeb23-27:Relocation expenses                                                                 MGregory:relocationFeb23wk                                                                          MGregory:relocationFeb23wk                                  26621          MC-GREGORY, MICHAEL                     .                                           662205WE3088222                     20140227TAX EXEMPT.    20140320 020257MGREGO04              10130039
NB AND SUBS\NB CAD 200314.txt(2658): APD20140320NESBITT CAN CAD   6NESBITT CAN CAD      123NTLTD    CDSTO       300                  INVEXPD000000000000001439CAD000000000000001439CAD20140320ChicagoFeb23-27:Relocation expenses                                                                 MGregory:relocationFeb23wk                                                                          MGregory:relocationFeb23wk                                  26621          MC-GREGORY, MICHAEL                     .                                           662205WE3088222                     20140227TAX EXEMPT.    20140320 020257MGREGO04              10130039
NB AND SUBS\NB CAD 200314.txt(2659): APD20140320NESBITT CAN CAD   6NESBITT CAN CAD      123NTLTD    CDSTO       300                  INVEXPD000000000000001160CAD000000000000001160CAD20140320ChicagoFeb23-27:Relocation expenses                                                                 MGregory:relocationFeb23wk                                                                          MGregory:relocationFeb23wk                                  26621          MC-GREGORY, MICHAEL                     .                                           662205WE3088222                     20140227TAX EXEMPT.    20140320 020257MGREGO04              10130039
NB AND SUBS\NB CAD 200314.txt(2660): APD20140320NESBITT CAN CAD   6NESBITT CAN CAD      123NTLTD    CDSTO       300                  INVEXPD000000000000001442CAD000000000000001442CAD20140320ChicagoFeb23-27:Relocation expenses                                                                 MGregory:relocationFeb23wk                                                                          MGregory:relocationFeb23wk                                  26621          MC-GREGORY, MICHAEL                     .                                           662205WE3088222                     20140227TAX EXEMPT.    20140320 020257MGREGO04              10130039
NB AND SUBS\NB CAD 200314.txt(2661): APD20140320NESBITT CAN CAD   6NESBITT CAN CAD      123NTLTD    CDSTO       300                  INVEXPD000000000000001270CAD000000000000001270CAD20140320ChicagoFeb23-27:Relocation expenses                                                                 MGregory:relocationFeb23wk                                                                          MGregory:relocationFeb23wk                                  26621          MC-GREGORY, MICHAEL                     .                                           662205WE3088222                     20140227TAX EXEMPT.    20140320 020257MGREGO04              10130039
NB AND SUBS\NB CAD 200314.txt(2662): APD20140320NESBITT CAN CAD   6NESBITT CAN CAD      123NTLTD    CDSTO       300                  INVEXPD000000000000000723CAD000000000000000723CAD20140320ChicagoFeb23-27:Relocation expenses                                                                 MGregory:relocationFeb23wk                                                                          MGregory:relocationFeb23wk                                  26621          MC-GREGORY, MICHAEL                     .                                           662205WE3088222                     20140227TAX EXEMPT.    20140320 020257MGREGO04              10130039
NB AND SUBS\NB CAD 200314.txt(3535): APD20140320NESBITT CAN CAD   6NESBITT CAN CAD      123NTLTD    CDSTO       694                  INVEXPD000000000000001432CAD000000000000001432CAD20140320ChicagoFeb23-27:Relocation expenses                                                                 MGregory:relocationFeb23wk                                                                          MGregory:relocationFeb23wk                                  26621          GREGORY, MICHAEL [621]                  .                                           662205WE3088222                     20140227TAX EXEMPT.    20140320 020257MGREGO04              10130039
NB AND SUBS\NB CAD 200314.txt(3536): APD20140320NESBITT CAN CAD   6NESBITT CAN CAD      123NTLTD    CDSTO       694                  INVEXPD000000000000001004CAD000000000000001004CAD20140320ChicagoFeb23-27:Relocation expenses                                                                 MGregory:relocationFeb23wk                                                                          MGregory:relocationFeb23wk                                  26621          GREGORY, MICHAEL [621]                  .                                           662205WE3088222                     20140227TAX EXEMPT.    20140320 020257MGREGO04              10130039
NB AND SUBS\NB CAD 200314.txt(3537): APD20140320NESBITT CAN CAD   6NESBITT CAN CAD      123NTLTD    CDSTO       694                  INVEXPD000000000000001199CAD000000000000001199CAD20140320ChicagoFeb23-27:Relocation expenses                                                                 ChicagoFeb23-27:Relocation expenses                                                                 ChicagoFeb23-27:Relocation expenses                         26621          GREGORY, MICHAEL [621]                  .                                           662205WE3088222                     20140227CLMHSTON10.71P020140320 020257MGREGO04              10130039
NB AND SUBS\NB CAD 200314.txt(3538): APD20140320NESBITT CAN CAD   6NESBITT CAN CAD      123NTLTD    CDSTO       694                  INVEXPD000000000000010001CAD000000000000010001CAD20140320ChicagoFeb23-27:Relocation expenses                                                                 MGregory:relocationFeb23wk                                                                          MGregory:relocationFeb23wk                                  26621          MC-GREGORY, MICHAEL                     .                                           662205WE3088222                     20140227CLMHSTON10.71  20140320 020257MGREGO04              10130039
NB AND SUBS\NB CAD 200314.txt(4113): APD20140320NESBITT CAN CAD   6NESBITT CAN CAD      123NTLTD    H8260       Z0048                INVEXPC-00000000000004563CAD-00000000000004563CAD20140320ChicagoFeb23-27:Relocation expenses                                                                 Claims at 10.71% HST ON Contra CR                                                                   Claims at 10.71% HST ON Contra CR                           26621          GREGORY, MICHAEL [621]                  .                                           662205WE3088222                     20140227CLMHSTON10.71CP20140320 020257MGREGO04              10130039
NB AND SUBS\NB CAD 200314.txt(4781): APD20140320NESBITT CAN CAD   6NESBITT CAN CAD      123NTLTD    H8260       Z0047                INVEXPD000000000000004563CAD000000000000004563CAD20140320ChicagoFeb23-27:Relocation expenses                                                                 Claims at 10.71% HST ON Contra DR                                                                   Claims at 10.71% HST ON Contra DR                           26621          GREGORY, MICHAEL [621]                  .                                           662205WE3088222                     20140227CLMHSTON10.71DP20140320 020257MGREGO04              10130039


